:020000040800F2
:10000000000C00205F0100085D0100085D01000890
:1000100000000000000000000000000000000000E0
:100020000000000000000000000000005D0100086A
:1000300000000000000000005D0100085D010008F4
:100040005D0100085D0100085D0100085D01000818
:100050005D0100085D0100085D0100085D01000808
:100060005D0100085D0100085D0100085D010008F8
:100070005D0100085D0100085D0100085D010008E8
:100080005D0100085D0100085D0100085D010008D8
:100090005D0100085D0100085D0100085D010008C8
:1000A0005D0100085D0100085D0100085D010008B8
:1000B0005D0100085D0100085D0100085D010008A8
:1000C00010B5064C2378002B07D1054B002B02D02E
:1000D000044800E000BF0123237010BD0000002091
:1000E0000000000008040008044B10B5002B03D0EA
:1000F0000349044800E000BF10BDC04600000000F6
:1001000004000020080400080023C25C0133002A18
:10011000FBD1581E704700000222054B996811421E
:10012000FCD00122D86099681142FCD0DB6870478E
:10013000003001408022034B19681142FCD0586006
:100140007047C0460038014010B5040020780028F0
:1001500000D110BD0134FFF7EDFFF7E7FEE71D48C2
:100160008546124A124B13499A60134A134B8B422D
:1001700016D30021124B134A934214D3124A134947
:10018000536809681B0C1B040B43802109020B43B5
:10019000052153600E4B19602323536300F01CF8B4
:1001A00001CA01C3E3E702C3E6E7C0460000000856
:1001B00000ED00E0000000207004000800000020B6
:1001C000000000201C00002000100240100FFF1F44
:1001D00010E000E0000C00200121784AF0B5536BDC
:1001E000774C0B435363A023DB051868802504403C
:1001F00074486D0120438224186058680227A04388
:100200005860D8687F3CA0430843D860186A6E4C99
:100210006E4E04400A2020431862106C6C4C284338
:100220001064DB2080002060656020684025B843B2
:10023000206020688FB088432060506B0143F0201D
:100240005163196881430800A0210143042019600B
:10025000596881435960D968BC3081432943D960CA
:10026000196A5C48084088214901014319628023CA
:10027000116CDB010B431364D023B360564BF36066
:100280005648FFF741FF83B20093236806201D43C1
:100290002560FFF741FF3800FFF73EFF0020FFF722
:1002A0003BFF0020FFF738FF0020FFF735FF002558
:1002B000009AABB29A4242D840222368934323600B
:1002C0000023474A0393039B93423EDD4348FFF7D5
:1002D0001BFF83B201934023226803201343236052
:1002E000FFF71AFF0020FFF717FF0020FFF714FFAA
:1002F0000020FFF711FF002709AD019BBB4228D169
:1003000040222368354893432360FFF7FDFE002316
:1003100009AC23543348FFF717FF2000FFF714FF01
:100320003148FFF711FF202433682342FCD03368A3
:100330002342FCD07068C0B2FFF7FCFEF4E7274B05
:10034000585DFFF7E9FE0135B2E7039B01330393E4
:10035000B9E7FF20FFF7E0FE8022A3681342FBD13C
:100360000222A3681342FBD0FF23E360FE3BA26896
:100370001A42FCD0E3681D482B70FFF7E5FE2B788E
:1003800011221B4904A8009300F034F80822009BB6
:1003900002A989181B09C85CFFF7CCFE0F230822AD
:1003A000009901370B4002A98A18D05CFFF7C2FE02
:1003B0000D48FFF7C9FEBFB201359EE700100240AD
:1003C000F03FFFFF0A80000000FFFF0F00380140F0
:1003D00000300140FF00FFFF0C2000002004000857
:1003E0003F420F003C04000853040008300400089A
:1003F00056040008002310B59A4200D110BDCC5C11
:10040000C4540133F8E70000F8B5C046F8BC08BC96
:100410009E467047F8B5C046F8BC08BC9E4670477B
:1004200048656C6C6F2C20573235513132382100C1
:100430005265616420627974653A20005265616496
:1004400020446174612066726F6D205732355131DE
:1004500032383A0D0A0030313233343536373839D4
:080460004142434445460000FF
:04046800E90000089F
:04046C00C1000008C3
:040000050800015F8F
:00000001FF
