:020000040800F2
:10000000000C00200B01000809010008090100088C
:1000100000000000000000000000000000000000E0
:1000200000000000000000000000000009010008BE
:10003000000000000000000009010008090100089C
:100040000901000809010008090100080901000868
:100050000901000809010008090100080901000858
:100060000901000809010008090100080901000848
:100070000901000809010008090100080901000838
:100080000901000809010008090100080901000828
:100090000901000809010008090100080901000818
:1000A0000901000809010008090100080901000808
:1000B00009010008090100080901000809010008F8
:1000C00010B5064C2378002B07D1054B002B02D02E
:1000D000044800E000BF0123237010BD0000002091
:1000E00000000000E8010008044B10B5002B03D00D
:1000F0000349044800E000BF10BDC04600000000F6
:1001000004000020E8010008FEE71D488546124A69
:10011000124B13499A60134A134B8B4216D300219A
:10012000124B134A934214D3124A13495368096875
:100130001B0C1B040B43802109020B430521536058
:100140000E4B19602323536300F01CF801CA01C34E
:10015000E3E702C3E6E7C0460000000800ED00E068
:10016000000000200802000800000020000000201D
:100170001C00002000100240100FFF1F10E000E0E4
:10018000000C0020A0238021DB05186830B5124C3C
:10019000C903204001431960DA68104922408024D5
:1001A000DA605A6864020A405A600D4AF623002059
:1001B0000C49FF33013B002B07D1A0218023C90547
:1001C00048691B0143404B61F0E75160906015683E
:1001D0002542FCD0EEE7C046FFFF3FFFFFF7FFFFE1
:1001E00010E000E0BF5D0000F8B5C046F8BC08BCF8
:1001F0009E467047F8B5C046F8BC08BC9E4670479E
:04020000E900000809
:04020400C10000082D
:040000050800010BE3
:00000001FF
