:020000040800F2
:10000000000C0020B7190008B5190008B519000840
:1000100000000000000000000000000000000000E0
:10002000000000000000000000000000B5190008FA
:100030000000000000000000B5190008B519000814
:10004000B5190008B5190008B5190008B519000858
:10005000B5190008B5190008B5190008B519000848
:10006000B5190008B5190008B5190008B519000838
:10007000B5190008B5190008B5190008B519000828
:10008000B5190008B5190008B5190008B519000818
:10009000B5190008B5190008B5190008B519000808
:1000A000B5190008B5190008B5190008B5190008F8
:1000B000B5190008B5190008B5190008B5190008E8
:1000C00010B5064C2378002B07D1054B002B02D02E
:1000D000044800E000BF0123237010BD640000202D
:1000E0000000000078260008044B10B5002B03D058
:1000F0000349044800E000BF10BDC04600000000F6
:10010000680000207826000803B4714649084000C2
:100110004900095E49008E4403BC70470022430831
:100120008B4274D303098B425FD3030A8B4244D3BF
:10013000030B8B4228D3030C8B420DD3FF22090201
:1001400012BA030C8B4202D31212090265D0030BC0
:100150008B4219D300E0090AC30B8B4201D3CB03B6
:10016000C01A5241830B8B4201D38B03C01A5241F8
:10017000430B8B4201D34B03C01A5241030B8B42FA
:1001800001D30B03C01A5241C30A8B4201D3CB02E5
:10019000C01A5241830A8B4201D38B02C01A5241CA
:1001A000430A8B4201D34B02C01A5241030A8B42CD
:1001B00001D30B02C01A5241CDD2C3098B4201D3E5
:1001C000CB01C01A524183098B4201D38B01C01A63
:1001D000524143098B4201D34B01C01A52410309DA
:1001E0008B4201D30B01C01A5241C3088B4201D389
:1001F000CB00C01A524183088B4201D38B00C01A36
:10020000524143088B4201D34B00C01A5241411A5C
:1002100000D20146524110467047FFE701B5002069
:1002200000F006F802BDC0460029F7D076E7704717
:100230007047C046844608006146FFE71FB500F0DE
:100240009FF8002801D40021C8421FBD10B500F05E
:100250002BF84042013010BD10B500F091F8002895
:1002600001DB002010BD012010BDC04610B500F01C
:1002700087F8002801DD002010BD012010BDC04618
:1002800010B500F037F8002801DC002010BD012077
:1002900010BDC04610B500F02DF8002801DA00208E
:1002A00010BD012010BDC04670B5420045024E028F
:1002B0004C00C30F6D0A0120120E760A240EC90FDE
:1002C000FF2A06D0FF2C03D0A24201D1B54206D0AE
:1002D00070BD002DFCD1FF2CFAD1002EF8D18B423D
:1002E00006D00120002AF3D12800431E9841EFE7F1
:1002F0000020EDE770B5420045024E024C00C30FEE
:100300006D0A120E760A240EC80FFF2A1BD0FF2C8E
:100310000ED0002A1BD1002C01D1002E1CD0002DA4
:100320000CD083421CD00221581E0840013870BDF9
:10033000002E22D1002AF4D1002DF2D10028F6D1CE
:1003400001204042F3E7002D17D1FF2CF0D0002C04
:10035000E7D1002EE5D1E6E70020002DE7D0E2E767
:10036000A24205DCEADBB54202D8E7D30020DEE793
:100370004342584140000138D9E702204042D6E7C5
:1003800070B5420045024E024C00C30F6D0A120EBA
:10039000760A240EC80FFF2A0BD0FF2C0DD0002A9E
:1003A0001FD1002C16D1002E14D10020002D10D00A
:1003B00009E0002D0CD1FF2C13D1002E08D1002A0A
:1003C00008D0834212D00221581E0840013800E0B4
:1003D000022070BD002DF4D10028FAD10120404246
:1003E000F7E7002CEDD1002EEBD1ECE7A24205DCC3
:1003F000F2DBB54202D8EFD30020EAE7434258418E
:1004000040000138E5E7C046F0B54F464646D646BF
:1004100044024500C0B5640A0F1C2D0EC60F002D06
:1004200000D18DE0FF2D00D192E00023802099467D
:100430009A46E400C00404437F3D7802430A98468C
:100440007B001B0EFF0F002B00D170E0FF2B00D1B3
:1004500086E04246D00080227F3BED180023D20484
:10046000024390469C4631004B467940681C0F2B56
:100470001CD8764A9B00D3589F4639004446E24632
:100480005346022B0FD0032B00D1D7E0012B37D1DD
:1004900000200024C0052043C9070843E0BCBA4639
:1004A000B146A846F0BDFF200024F3E7260C240443
:1004B000220C44462404240C434627001B0C5743BB
:1004C00074435A435E4312193B0C9B189C4203D958
:1004D00080225202944666443F041A043F0CD2190B
:1004E0009401671EBC411B0C920E9B1914439B0187
:1004F0001C431B0100D49BE0012362081C401443F1
:1005000002007F32002A64DD630704D00F232340FA
:10051000042B00D00434230103D502004C4B80325D
:100520001C40FE2ABFDCA401640AD0B2B2E74346F5
:10053000002B3DD14A4601331A4391469C4692E72F
:10054000002C29D104239946033B00259A4674E7E1
:10055000002C1BD108239946063BFF259A466CE7E1
:100560004346FF35002B0BD102234A461A439146DE
:100570009C4678E753463100022B00D083E792E790
:1005800003234A461A4391469C466CE70C2399463E
:10059000093BFF259A4650E7200001F087F97625B0
:1005A000431F9C4000236D4299469A462D1A44E70A
:1005B000404601F07BF94246431F9A4000232D1A22
:1005C00090469C46763D4EE780240021FF20E403C0
:1005D00060E701239B1A1B2B00DD59E722009E30A8
:1005E000DA4084401300621E94411C43630704D028
:1005F0000F232340042B00D0043463011AD50120BB
:10060000002447E78020C003044209D04346034248
:1006100006D14446044364023900FF20640A39E7E6
:100620008020C003044364023100FF20640A31E7E4
:10063000280065E7A4010020640A2BE78020C0039E
:1006400004436402FF20640A24E7C04690260008A1
:10065000FFFFFFF7F8B5CE46474643025B0A4E025E
:10066000DA009446720A914645004A0080B52D0E84
:100670001F00C40F120EC90FB609FF2A5BD001205C
:1006800041408C4239D0A81A00285ADD002A6AD08D
:10069000FF2D00D1D9E08022D20416431B2800DCB4
:1006A000E9E001206346181A430100D4B4E0800158
:1006B0008709380001F0FAF805388740854200DCE8
:1006C000CCE02D1AB5483840430704D00F2303402F
:1006D000042B00D00430430100D4A0E06A1CFE2D9E
:1006E00000D18DE08001470AD2B2D0053843E4073B
:1006F0002043C0BCB946B046F8BDA81A80460028C1
:1007000045DD002A70D0FF2D00D19EE08023DB0460
:100710001E4343461B2B00DCD2E001206044430112
:100720007AD50135FF2D6BD001239D4A0340400847
:1007300010401843C8E7002E20D08C4223D0280058
:10074000FF38002839D0571B002D00D09DE06346AC
:10075000002B00D1DBE07B1E012F00D10DE1FF2F2C
:1007600071D01F0098E0002E00D1A7E0421E0128A2
:1007700000D1E6E0FF2868D010008FE7012041405B
:10078000A14200D07FE7FF2040428046A844404677
:10079000002838D0511B002D00D1AEE0FF2A00D137
:1007A000DFE080236046DB04184384461B2900DC1D
:1007B000D9E0012015008019B1E7FE206A1C104223
:1007C00071D1002D00D0A6E06346002B00D1D9E006
:1007D0000022002E00D188E7981B430100D4E1E0FD
:1007E00063460C00F01A6FE7002E00D1B7E002005C
:1007F000013A012800D19CE0FF2826D0904688E7E6
:10080000FF22002771E7FE206A1C104264D0FF2AF5
:10081000F6D0150066447008430700D056E7C308B9
:10082000FF2D12D05B025F0AEAB25EE76246002A41
:1008300000D196E0002E08D08022D203134204D0CB
:100840004846104201D10C004B46002BD8D08027DF
:10085000FF031F437F02FF227F0A46E720233A005F
:10086000451B38000135EA405D1BA840431E9841F6
:100870000025104328E720231B1A32009E40C24067
:100880003000431E984110430CE7FF2ADBD0802341
:100890006046DB04184384461B2F56DD01200C0004
:1008A0001500301A00E763469F1B7B013DD4002FE3
:1008B00000D0FEE600240022002716E70500AFE77F
:1008C000320043464146DA4020235B1A9E40300006
:1008D000431E9841104321E7002DA7D16346002B0A
:1008E00059D00022002E00D1FFE6300060444301C1
:1008F00092D52A4B013518408EE76346002B47D02E
:100900004B1E012915D0FF292BD019004EE70C00F2
:100910004B463D0084E76246002A8BD1002E92D1DF
:1009200080270024FF22FF03DFE663460C00F71A4E
:10093000BFE6300060440125430100D46CE7022586
:10094000F2E663460125981BAEE620236446604626
:10095000FC40DF1BB840431E984120439FE7050041
:100960005EE74B4671E7202365466046CD40591A45
:100970008840431E984128431CE763460C0001252C
:10098000F01A91E6002E95D00C004F460022ACE6FE
:100990004B460D0044E74F460022A6E6FFFFFFFB53
:1009A000FFFFFF7D002800D036E7002400279CE6EB
:1009B00041024200C30F490A0020120E7E2A03DDC5
:1009C0009D2A02DD094A98187047802000040143DF
:1009D000952A07DC9620821AD1404842002BF3D199
:1009E0000800F1E7963A9140F7E7C046FFFFFF7F26
:1009F000F8B5002813D0C317C6185E40C40F3000E6
:100A000000F054FF9E2305001B1A962B0FDC0828CC
:100A100001DD083DAE407602760AD8B202E000243D
:100A200000200026C0053043E4072043F8BD992B81
:100A30000CDD05223100121AD1400A0001003000FD
:100A40001B318840411E884102431600052D12DCEF
:100A500031000D4F3940720709D00F203040042873
:100A600005D004314A0102D59F2339405B1B89011F
:100A70004E0AD8B2D6E76A1F96403100024F39407D
:100A80007207F4D0E9E7C046FFFFFFFB70B5051E13
:100A90000ED000F00BFF9E2304001B1A962B0CDCDB
:100AA000082801DD083CA5406D026D0AD8B201E0BE
:100AB00000200025C005284370BD992B09DD0200E8
:100AC00029001B3291404A1E91410522121AD5403D
:100AD0000D43052C12DC29000C4E31406A0709D069
:100AE0000F202840042805D004314A0102D59F2355
:100AF00031401B1B89014D0AD8B2DBE7621F9540CC
:100B00002900024E31406A07F4D0E9E7FFFFFFFBFE
:100B1000F0B557464E464546DE46E0B598460C03CE
:100B20004B000600924687B0240B5B0DCF0F002BC5
:100B300000D15CE1D94A934200D175E1420FE40053
:100B40001443802212041443D54AC50094466344DA
:100B50000093002399469B46434642461E03D20F0C
:100B60005B0050469046360B5B0D00D120E1CB4A2E
:100B7000934200D162E1CA49420F8C460099634416
:100B8000F6008C46164380229C44120463461643AA
:100B9000C200002000930099434601318C4649462B
:100BA0007B4001930F2926D8BE4B890059588F46A8
:100BB000434601933400150083465B46022B16D052
:100BC000032B00D103E2012B00D0CDE00022002452
:100BD0000025019B12052243DB071A432800110060
:100BE00007B0F0BCBB46B246A946A046F0BD002403
:100BF0000025AA4AEDE7280C2D042D0C2B00110C22
:100C00001204120C5343984613002F004343994695
:100C10004F434F44BB4647460B003F0CBA46434345
:100C2000DA440293D14504D980277F02B9464B4468
:100C3000029353461B0C9B4653461F0443461B041A
:100C40001B0C98463B0043440493330C3604360C8B
:100C50009846330043439946434643432F009A4600
:100C6000434677435D43380C4D444519A94503D9A4
:100C700080235B029946CA443F04280C3F0C2D0494
:100C8000ED19270C2404240C0300200050437A4360
:100C900091463A0053440593030C9A464A436143F4
:100CA00049445144AB44894503D980235B029946AA
:100CB0004A4400040B0C000C090409182000994652
:100CC000434670435C437E435F43030C9846A4193C
:100CD00044444A440397A64204D980235B029846C1
:100CE000474403972304029E9A46059B5E44984618
:100CF000AE42AD4176188E4289410004000C50444A
:100D000040446D424719B846934649428946C34418
:100D1000D94498428041A845AD41934592418945C7
:100D200089416D4240422843240C524249420A43C1
:100D3000039B00198018C7184B46DC0D049B7502F5
:100D40001D436A1E95414B46F60D7F0235435A02FC
:100D50003C431543FB0100D41CE101216A080D400E
:100D60001543E207154364084F496144002900DC3C
:100D7000B0E06B0709D00F222A40042A05D02A1DB3
:100D8000AA42AD416D4264191500E30104D58021EA
:100D9000464AC90014406144454A914200DD26E7B5
:100DA0006207ED08640249051543240B4A0D10E75C
:100DB0005246324300D17FE0002E00D1DCE030000B
:100DC00000F074FD02000B3A1D2301009B1A5246ED
:100DD0000839DA408E40164352468A40009B354916
:100DE000181A03008C46634400200093D3E62500C4
:100DF00005434AD0002C00D1B0E0200000F056FDA1
:100E0000010002000B391D2310005B1A3100350070
:100E100008388440D94085400C432648831A009303
:100E2000002399469B4697E60500254326D10822D4
:100E300000930223002491469B468DE65246009B78
:100E4000324310D1154900268C466344494600932D
:100E500002231943894602209DE65B460197022B37
:100E600000D0ADE6C3E60D4A0320944663444A46EB
:100E7000009303231A43914652468CE60C220093BA
:100E80000323050091469B4666E60423994600230A
:100E90000093013300249B465EE6C046FF07000036
:100EA00001FCFFFFD0260008FF030000FFFFFFFE4C
:100EB000FE0700000DFCFFFF494601231943894648
:100EC0000026012067E6002380240025434A019381
:100ED00024037EE60120401A382800DD76E61F282C
:100EE0005BDD1F2223005242511ACB4019002028FB
:100EF00003D03B4A6244944025436A1E95412A0030
:100F00000A4307210D000024154011425BD00F2138
:100F100000241140042953D0111D914292415242A4
:100F2000A4180A0023024BD501220024002550E614
:100F300080231B031C4209D01E4207D133431C03EC
:100F400043461500240B254A019342E680221203F2
:100F500014432403214A240B01973AE600F0A6FC2F
:100F600001000200153120321C2900DC4BE734005F
:100F700008380025844050E700F098FC03001A0070
:100F8000153220301C2A00DC1EE75646083B0022A2
:100F90009E4023E7009B9C46E6E6124922006144FE
:100FA0002E008D408A40C640691E8D4132432A433F
:100FB000C4405307B6D00F2111400429ACD1B1E78A
:100FC00065076402240BD2081543002201E6802243
:100FD000120314432403014A240BFAE5FF0700001F
:100FE0003E0400001E040000F8B557464E46454634
:100FF000DE46E0B51E0017004A000B03520D5B0AE7
:101000009046420F1A43CD0FCD4C3103C300944696
:1010100070007A0F490AFF009A46B946400DF60F54
:101020001143A04200D1B1E001225640B346B5427F
:1010300000D188E04246121A002A00DCAEE0002807
:1010400000D1C1E0BE48804500D151E180200004BC
:101050000143382A00DD7BE11F2A00DDEEE120207C
:101060003E00801A0C00D640D14087406246844042
:10107000521A781E8741944634432743DC1BA3420F
:101080009B4162465B42D31A99464B461B0200D4F1
:1010900018E14B465802430A99464B46002B00D1B3
:1010A00037E1484600F002FC010008392023220005
:1010B00048465B1ADA4088408C40434610438845D6
:1010C00000DD36E1C91A4B1C1F2B00DDEAE02022AF
:1010D0002600D21A01009440DE40D84000239140FF
:1010E000621E94418146984631430C43630709D000
:1010F0000F232340042B05D0231DA342A4416442A7
:10110000A1441C004B461B0200D4DEE041468C4B40
:101110000131994200D1E7E04B468A48E408034098
:10112000180049055B07400223434A0D040B1205D2
:10113000ED0722432A4318001100F0BCBB46B2461B
:10114000A946A046F8BD4246121A002A52DD0028E0
:1011500000D19CE0A04500D1CAE0802000040143FA
:10116000382A00DD49E11F2A00DC97E110000E005B
:101170002038C640202A04D04020821A91400F43D4
:10118000B9464C46621E944134433AE10A003A4360
:1011900028D0B346B5422BD06B4A4244002A5DD0DA
:1011A00042464446821A002C00D0F5E065461D43B5
:1011B00000D19CE1551E012A00D1FBE1604CA24206
:1011C00000D1BDE12A00F0E00800384300D1C3E0BF
:1011D000501E012A00D1A8E1594CA24200D187E05B
:1011E000020036E701225640B346B54200D021E75F
:1011F000554A4244002A00D1B5E042464446821A8C
:10120000002C00D138E14E4EB04200D1DEE1802604
:10121000644636043443A446382A00DD96E11F2A8A
:1012200000DD24E22026B41AA24664465646B440A5
:10123000A1461C004E46D440264334005646B340D7
:101240005E1EB3411C436346D340C918E419BC4237
:10125000BF417F42B94680468944D8E040463B4C76
:101260000130204200D0B4E04046002800D044E1E4
:101270006046184300D190E10800384300D0AAE14D
:101280006146DB0849070B436146CC0827E00800AC
:10129000384361D0501E012A00D139E1A24227D043
:1012A00002005DE702001F39CA401100202B03D065
:1012B0004022D31A98400443631E9C410023994660
:1012C00098460C43630700D012E74B464A46E408B1
:1012D0005B072343D408424619498A420ED02403AF
:1012E0005205240B520D22E70A00002400231EE7BA
:1012F000DB086246520713436246D4081A002243B1
:1013000000D1FCE180221203144324030C4A240B75
:101310000DE7200000F0CAFA010018311F2900DC97
:10132000C4E608388440434620000024884500DC99
:10133000C8E6044A5B1A104098468146D6E6C04685
:10134000FF070000FFFF7FFF01F8FFFFFE0700001F
:101350000F437A1E974191E66146DB0849070B432C
:101360006146CC08B8E74046D34C0130204200D05B
:10137000A2E04046002800D001E16046184300D1B9
:101380005EE10800384300D05FE16146DB084907B1
:101390000B436146CC08A2E7C84DA84200D1CFE07C
:1013A000802564462D042C43A446382A56DC1F2A87
:1013B00000DDD1E020251E00AD1A6446AB40AC40F4
:1013C000D6405D1EAB41344323436446D440091BE1
:1013D00049E06046DC1B461AA342804140428146F8
:1013E00030004E46801B8146000276D44B46234394
:1013F00000D052E60024002571E739430C00621E3C
:101400009441E4189C429B415B42634499464B469D
:101410001B0200D456E701239C46A84BE0449845A4
:1014200038D04B46A64801220340180063081440F8
:101430001C43C3071C434308994657E610000E009F
:101440002038C640202A04D04020821A91400F4301
:10145000B9464F467A1E974137430FE662461A4314
:1014600013005A1E9341FC1AA742BF417F42CB1B77
:1014700099465D46804608E666461E4300D1BEE0BA
:10148000561E012A00D109E18C4CA24200D119E17B
:101490003200C1E642460024002348E620200C002A
:1014A000801A3E0087408440D640781E8741D14054
:1014B00034433C438C44A4E7804A904200D1E9E0A5
:1014C000DF199F429B4161445B42C918CC077F08EA
:1014D0004B08994680463C43F4E6FC1AA742BF41BC
:1014E00063467F42C91ACB1B99465D46D5E5FF0886
:1014F0004B075D463B43CC08EEE662461A4300D0FC
:1015000082E00B003B431BD1802400252403F9E635
:10151000DC199C429B41614489465B4299444B469D
:101520001B0244D401239846CCE6DC1B6246A3424E
:101530009B41511A5B42CB1A994601239846A4E578
:10154000FF084B075D463B43CC08D7E662461A438B
:101550001400631E9C4179E615006446203DEC4072
:10156000A046202A05D040256446AA1A9440234369
:101570009A465446631E9C414346234373E76246A2
:101580001A4323D00A003A4300D0A0E06246DB08A9
:10159000520713436246D408B0E60B003B4300D128
:1015A00028E7FF084B075D463B43CC0897E602233C
:1015B000984636E7FC1AA742BF4163467F42C91AE4
:1015C000CB1B994601235D4698465EE54B07FF0815
:1015D0003B43CC0892E6DC1B6046A342B641401A6E
:1015E0007642801B8146000260D5FC1AA742BF41AB
:1015F00063467F42C91ACB1B99465D4676E5FF08D4
:101600004B073B43CC0867E60A00DB083A4300D1AE
:101610006FE66246520713436246D40880221203E3
:10162000144207D0C808104204D15D460400FB08EC
:1016300049070B435A0FDB00DB08520713435DE6F3
:101640004B07FF083B43CC0849E6DC199C429B4111
:10165000614489465B4299444B461B0200D431E603
:101660004A46174B1A400123914698462AE616002F
:101670006446203EF440A046202A05D04026644619
:10168000B21A944023439A465446631E9C414346F3
:101690001C43DBE502000024002348E5DC19BC42C2
:1016A000BF41614489467F42B94438E74B462343F2
:1016B00000D19FE606E6C046FE070000FF070000D7
:1016C000FFFF7FFFFF084B073B43CC0816E662464F
:1016D000DB08520713436246D408802212031442E7
:1016E00007D0C808104204D15D460400FB08490732
:1016F0000B435A0FDB005207DB081343FEE50023C0
:10170000014A1C0013E5C046FF07000070B5430006
:101710004602C40FFE201B0E591C750A08420CD04D
:10172000E022920094466D07360B63441B05334359
:10173000E40723432800190070BD002B14D1002DAD
:101740001BD0280000F0B2F80A281CDC0B232E0066
:101750001B1ADE40030015339D400E4A3603121A51
:101760005205360B530DE1E7002D09D08022360BD0
:101770001203094B6D071643D8E700230026D5E76F
:101780000026054BD2E703000B3B9D402E000025B1
:10179000E3E7C04689030000FF07000002004B009A
:1017A000F0B55B0D0C033D4E640A400F5F1CC90F82
:1017B0000443D50037420AD039481E18FE2E16DDE4
:1017C000FF200024C0052043C9070843F0BD002BBB
:1017D00006D12C4326D005229201540AD8B2F1E753
:1017E0002543EDD08020C0030443FF20EAE7002E0C
:1017F0001BDD9201531E9A41E4006D0F22432A43E0
:10180000530748D00F231340042B00D00432802309
:10181000DB0413403FD0701CFE2ED1D09201540A3D
:10182000C0B2CFE700200024CCE73200173222DB21
:101830008020000420431E24A41B1F2C1DDD022237
:101840005242961B0200F2401600202C04D0154A8A
:1018500094466344984005432A00531E9A413243FC
:1018600000265307CED180241300E4040120234036
:101870002242D3D1B0E70023ADE70B4A94462A00B9
:10188000E24014002A0063449A409840551EAA4141
:1018900002432243E4E733009EE7C046FE07000010
:1018A00080FCFFFFA2FCFFFF82FCFFFF1C21012345
:1018B0001B04984201D3000C10391B0A984201D333
:1018C000000A08391B09984201D30009043902A211
:1018D000105C40187047C046040302020101010178
:1018E0000000000000000000802110B5054A0378C8
:1018F000002B00D110BD013014680C42FCD05360A5
:10190000F5E7C046003801400022FA239B00C0469C
:10191000013B002BFBD101329042F6D17047000011
:1019200002220C4B99691142FCD1A0221968D20005
:101930000A431A60012259691142FCD0022218613F
:1019400059691142FCD09B6901231840024B187061
:101950007047C0460054004080000020094B00281A
:1019600008D11A6808490A401A6080221968920052
:101970000A431A60402259691142FCD01869C0B26A
:101980007047C04600540040FFFBFFFF074B1B7829
:10199000002B09D10422064B59691142FCD0802248
:1019A000196892000A431A607047C0468000002000
:1019B00000540040FEE71D488546124A124B134969
:1019C0009A60134A134B8B4216D30021124B134AD1
:1019D000934214D3124A1349536809681B0C1B0421
:1019E0000B43802109020B43052153600E4B196004
:1019F0002323536300F01CF801CA01C3E3E702C3C9
:101A0000E6E7C0460000000800ED00E064000020AA
:101A1000E02800080000002064000020980000205A
:101A200000100240100FFF1F10E000E0000C00202B
:101A30000121AF4BF0B55A6BF0240A435A63A02240
:101A4000D2051068C025A0430400A02020431060E8
:101A5000042054680F2684435460D468A54FAC43D7
:101A6000250040242C43D460146AA34D97B0254030
:101A7000882464012C43146280221C6CD20122430E
:101A8000D0241A649D4A94609D4CD46020225C6BE3
:101A900022430A245A639B4A1568B5432C43032505
:101AA000146054682C435460D468B4432600052461
:101AB0003443FF26D460146AB4432600CC24344354
:101AC00014628022DC6B92032243DA638E4B7860CF
:101AD000FB6110238D483B623960FFF705FFFA2058
:101AE00006AC4000FFF710FF89492A00200000F0F3
:101AF0005AFC7020FFF714FF00238021E25C786914
:101B00000842FCD001333A61032BF7D1FFF73EFFC7
:101B1000FA204000FFF7F8FE7120FFF701FF0020D8
:101B2000FFF71CFF0500FFF731FF7A482B0700D5B0
:101B30007948FFF7D9FEFA204000FFF7E5FE774924
:101B40000322200000F02FFC7548FFF7CDFE702027
:101B5000FFF7E6FE00238021E25C78690842FCD0B2
:101B600001333A61032BF7D1FFF710FF6D48FFF700
:101B7000BBFE14257120FFF7D3FE0020FFF7EEFE19
:101B80000600FFF703FF33063ED46748FFF7ACFEBD
:101B90000626013E002E3FD123787F2B55D9002504
:101BA0006248FFF7A1FE2E1C281CFEF701FF0490DF
:101BB000301CFEF7FDFE0590FEF71AFF011C301CDD
:101BC000FEF748FD5A49FEF71FFCFEF7F1FE059BA4
:101BD000029004980193FEF70BFF011C281CFEF7EE
:101BE00039FD5349FEF710FCFEF7E2FE4021049B4D
:101BF000504A0090200000F0B3F82000FFF774FE78
:101C00004D48FFF781FE96E73220013DFFF77CFE4D
:101C1000002DAFD14948B9E77120FFF781FE0025BB
:101C200000230422E80FAA425841C0B2FFF796FEF3
:101C300060550135062DF3D1FFF7A8FE23787F2BE1
:101C400003D93220FFF760FEA3E76078A378E57838
:101C50001B01000318432B091843FEF717FFFFF77A
:101C600055FD0022364BFEF753FF0022354BFEF7A1
:101C70004FFFFFF793FD061C2804F0252D03284095
:101C8000A5886DBAADB22843FEF700FFFFF73EFD11
:101C900000222B4BFEF73CFF00222B4BFEF738FFB8
:101CA00000222A4BFFF7A0F9FFF778FD2849051C11
:101CB000FEF7D2FA002805D12649281CFEF7E0FAE3
:101CC000002803D02448FFF70FFE00250021301C18
:101CD000FEF7C2FA002806D11549301CFEF7D0FAEB
:101CE000002800D160E71D48FFF7FEFD00265BE7F6
:101CF0000010024000540040FF00FFFF0038014088
:101D00000C20000000140050148000001027000870
:101D10009D2800082927000849270008A028000856
:101D20006C27000888270008C4270008F727000848
:101D30000000C8426E28000810270000D4270008C1
:101D40000000B03E000059400000694000004940DA
:101D5000000020C20000AA422128000849280008EB
:101D60000CB430B5174B0C001D689DB0002908DA83
:101D70008B2301202B6040421DB030BC08BC02B058
:101D8000184782236A469B009382002302900690A4
:101D9000994200D04B1E0493079301236A465B428D
:101DA000D382280021AB209A02A9019300F06EF89B
:101DB000431C01DA8B232B60002CDDD00023029A18
:101DC0001370D9E700000020F0B58E6885B00700D9
:101DD0000C00039201939E423CD890238A89DB0039
:101DE0001A4234D00969236860695B1A029303239D
:101DF0004343DD0FED18019B029801331B186D1052
:101E0000AB4200D91D00530532D52900380000F03F
:101E100053FB061E09D10C233B6040230120A289FD
:101E200040421343A38105B0F0BD029A216900F03E
:101E3000BAFAA389144A1A4080231343A381029B50
:101E40002661F61826606561019EED1AA560019B6A
:101E50009E4200D9019E32000399206800F0ACFA3E
:101E6000A36800209B1BA36023689E192660DAE705
:101E70002A00380000F096FB061EE0D138002169E8
:101E800000F0AEFAC7E7C0467FFBFFFFF0B5A1B098
:101E900003901D008B890F0016001B0611D50B69DE
:101EA000002B0ED1402100F007FB3860386100287C
:101EB00005D10C23039A0138136021B0F0BD4023F3
:101EC0007B61002308AC6361203363761033A37613
:101ED000079535002B78002B01D0252B47D1AB1B64
:101EE0000593B5420CD0320039000398FFF76CFF20
:101EF000431C00D1AEE06269059B94466344636174
:101F00002B78002B00D1A5E0012200235242626011
:101F100004A9543252186E1C2360E360A36013704E
:101F2000A36505223178544800F032FA751C002868
:101F30001FD12268D30604D5532304A95B1820219E
:101F40001970130704D5532304A95B182B211970AA
:101F500033782A2B16D0350000210A20E3682A782E
:101F60006E1C303A092A4ED9002911D117E00135EB
:101F7000B0E7414B2268C01A0123834013432E006F
:101F80002360CEE7079B191D1B680791002B01DB1F
:101F90000B9304E05B42E3600223134323602B783E
:101FA0002E2B0AD16B782A2B35D1079B02351A1DAF
:101FB0001B680792002B2BDB0993304E0322300065
:101FC000297800F0E5F9002806D04023801B8340E3
:101FD00022680135134323602978062228486E1CA5
:101FE000217600F0D5F900283CD0264B002B25D1D6
:101FF0000722079B07339343083307936369049AC7
:102000009B18636165E74343350001219B18A6E7F0
:1020100001235B42D0E700230A201A0001356360E8
:1020200029786E1C3039092903D9002BC5D00992B3
:10203000C3E74243350001235218F1E707AB009391
:102040003A002100104B039800E000BF0490049B6D
:102050000133D3D1BB890D985B0600D42DE7012055
:1020600040422AE707AB00933A002100064B039851
:1020700000F07CF8EAE7C046A3280008A928000879
:10208000AD28000800000000C91D0008F7B51500C4
:1020900001938A680B690C000090934200DA1300E8
:1020A00022002B6043321278002A01D001332B60CA
:1020B00023689B0602D52B6802332B602268062317
:1020C00017001F401A4227D0230043331B785A1EA3
:1020D00093412268920630D4220001990098089E0C
:1020E0004332B047431C25D0062320682A68E168A4
:1020F00000250340042B03D18D1AEB43DB171D4051
:10210000A3682269934201DD9B1AED180027BD42A6
:1021100020D1002010E00137E3682A689B1ABB42F7
:10212000D2DD2200012301990098089E1932B047A0
:10213000431CF0D101204042FEBD3020E118433164
:10214000087021005A1C45310978A2184332023325
:102150001170C1E72200012301990098089E1A32EC
:10216000B047431CE6D00137D1E70000F0B58BB093
:1021700006920A0043320793059004920A7E0C00EF
:10218000109B782A07D8622A09D8002A00D1C1E01A
:10219000582A00D18CE026004236327022E010002E
:1021A00063381528F7D8FDF7AFFF16001F00F6FFBC
:1021B000F6FFF6FFF6FF1F00F6FFF6FFF6FFF6FF4D
:1021C000A80036009A00F6FFF6FFB900F6FF3600C9
:1021D000F6FFF6FF9E0026001A684236111D1960B0
:1021E000136833700123A7E0086819680A1D050603
:1021F0000BD50D681A60002D03DA2D23049A6D4269
:102200001370614B0A2703931BE00D681A604106A7
:10221000F1D52DB2EFE70D681968081D18602E067C
:1022200001D50D6803E06D06FBD50D68ADB2564BC8
:10223000082703936F2A00D002372300002243337C
:102240001A706368A360002B03DB042221689143AA
:102250002160002D02D1049E002B0CD0049E28008A
:102260003900FDF7E1FF039B013E5B5C33702B00FF
:1022700005009F42F3D9082F09D12368DB0706D553
:1022800063682269934202DC3023013E3370049B71
:102290009B1B2361079B210000930598069B09AABD
:1022A000FFF7F4FE431C4CD1012040420BB0F0BDBF
:1022B00045310A70344A03921A68216820CA1A60AC
:1022C000080616D5CB0702D5202319432160102715
:1022D000002DB2D1202322689A432260ADE720224C
:1022E00009680A4322602200782145321170274A8A
:1022F000E1E74806E6D5ADB2E4E71A680D68101DBF
:102300004969186013682E0601D5196002E06D0650
:10231000FBD519800023049E2361BBE71A68111DB9
:102320001960166800213000626800F031F800285A
:1023300001D0801B6060636823610023049A1370DE
:10234000A8E72369320006990598079DA847431C12
:10235000AAD023689B0715D4099BE0689842A5DAA8
:102360001800A3E72200012306990598079E193259
:10237000B047431C98D00135E368099A9B1AAB42D9
:10238000F0DCE9E70025F7E7B4280008C5280008D5
:10239000C9B28218904201D10020704703788B4265
:1023A000FBD00130F6E7002310B59A4200D110BDF2
:1023B000CC5CC4540133F8E710B5884202D98B18BD
:1023C000984203D3002307E08B5C8354013AFBD28D
:1023D00010BDCC5CC45401339A42FAD1F8E7000036
:1023E00070B50500002910D00C1F2368002B00DAFF
:1023F000E418280000F018F91D4A1368002B05D1D5
:1024000063601460280000F017F970BDA34208D97A
:10241000216860188342F3D118685B684118216015
:10242000EEE71A005B68002B01D0A342F9D91168CE
:102430005018A0420BD1206809185018116083422F
:10244000E0D118685B68411811605360DAE7A04278
:1024500002D90C232B60D5E721686018834203D191
:1024600018685B684118216063605460CAE7C04621
:102470008400002070B50F4E0D0031680400002963
:1024800002D100F0BFF830602900200000F0BAF857
:10249000431C0AD00323C51C9D43A84207D0291A18
:1024A000200000F0AFF8431C01D101256D42280047
:1024B00070BDC04688000020F7B50322CB1C9343B3
:1024C000083306001F000C2B32D20C27B94231D83A
:1024D000300000F0A9F8324D2B681C00002C2ED1E2
:1024E00039003000FFF7C6FF0400431C1ED12C68E2
:1024F0002500002D4AD123682900E31830000193FC
:1025000000F080F8019B834243D123680337FF1A10
:1025100003239F4308370C2F00D20C2739003000CB
:10252000FFF7A8FF431C34D02368DF19276013E0AE
:10253000002BCBDA0C23002533602800FEBD226877
:10254000D11B20D40B2917D9E2192760A34211D13E
:102550002A606368116053603000250000F06CF859
:1025600007220B35231D9543EA1A9D42E5D05B1BDC
:10257000A350E2E75A60ECE76268A34201D12A6007
:10258000EAE75A60E8E723006468A7E72C006D6873
:10259000AFE70C233000336000F04EF8CDE7C046C3
:1025A00084000020F7B507000E001400002905D1B3
:1025B0001100FFF781FF05002800FEBD002A03D1AE
:1025C000FFF70EFF2500F7E700F03EF80190844288
:1025D00003D835004308A342EED321003800FFF7AB
:1025E0006BFF051EE8D0019B22009C4200D91A0017
:1025F00031002800FFF7D7FE31003800FFF7F0FE6A
:10260000DAE70000002370B5064D040008002B60D7
:1026100000F024F8431C03D12B68002B00D023606A
:1026200070BDC0468C00002010B5024800F014F8C0
:1026300010BDC0469000002010B5024800F00DF813
:1026400010BDC046900000200B1F1B68181F002BF8
:1026500001DA0B58C018704770477047044A0300EE
:102660001068002802D0C318136070470148FAE7C9
:102670009400002098000020F8B5C046F8BC08BCC3
:102680009E467047F8B5C046F8BC08BC9E467047E9
:10269000AC0400087C0400087C0400087A040008EC
:1026A0008004000880040008C80500087A040008B7
:1026B00080040008C8050008800400087A040008A7
:1026C0007405000874050008740500080406000875
:1026D000F60B0008B40B0008B40B0008B00B0008A0
:1026E000BA0B0008BA0B0008C60E0008B00B0008B1
:1026F000BA0B0008C60E0008BA0B0008B00B0008A1
:102700005A0E00085A0E00085A0E0008300F000832
:10271000496E697469616C697A696E6720414854D1
:102720003231422E2E2E0D0A0041485432314220C1
:10273000696E697469616C697A6174696F6E20662B
:1027400061696C6564210D0A0041485432314220B0
:10275000696E697469616C697A6564207375636315
:1027600065737366756C6C792E0D0A005472696717
:10277000676572696E67206D6561737572656D65F9
:102780006E742E2E2E0D0A004D6561737572656D87
:10279000656E7420636F6D6D616E642073656E7419
:1027A0002E2057616974696E6720666F72207365A9
:1027B0006E736F722072656164696E6573732E2E1D
:1027C0002E0D0A0053656E736F7220726561647915
:1027D0002E0D0A0053656E736F72206E6F74207237
:1027E0006561647920616674657220312073656368
:1027F0006F6E642E0D0A00496E76616C6964206408
:1028000061746120616674657220726574726965B5
:10281000732C20736B697070696E672E2E2E0D0AF3
:102820000054656D7065726174757265206F7574A2
:10283000206F662072616E67652C207265747279F4
:10284000696E672E2E2E0D0A0048756D69646974D5
:1028500079206F7574206F662072616E67652C2019
:102860007265747279696E672E2E2E0D0A0054659A
:102870006D70657261747572653A2025642E25301D
:10288000326420430D0A48756D69646974793A2091
:1028900025642E253032642025250D0A00BE08004F
:1028A000AC3300232D302B2000686C4C006566672C
:1028B00045464700303132333435363738394142B6
:1028C0004344454600303132333435363738396188
:0828D00062636465660000000C
:0428D800E90000080B
:0428DC00C10000082F
:1028E00004000020000000000000000000000000C4
:1028F00000000000000000000000000000000000D8
:1029000000000000000000000000000000000000C7
:1029100000000000000000000000000000000000B7
:1029200000000000000000000000000000000000A7
:102930000000000000000000000000000000000097
:042940000000000093
:04000005080019B71F
:00000001FF
