:020000040800F2
:10000000000C00200B01000809010008090100088C
:1000100000000000000000000000000000000000E0
:1000200000000000000000000000000009010008BE
:10003000000000000000000009010008090100089C
:100040000901000809010008090100080901000868
:100050000901000809010008090100080901000858
:100060000901000809010008090100080901000848
:100070000901000809010008090100080901000838
:100080000901000809010008090100080901000828
:100090000901000809010008090100080901000818
:1000A0000901000809010008090100080901000808
:1000B00009010008090100080901000809010008F8
:1000C00010B5064C2378002B07D1054B002B02D02E
:1000D000044800E000BF0123237010BD0000002091
:1000E0000000000034020008044B10B5002B03D0C0
:1000F0000349044800E000BF10BDC04600000000F6
:100100000400002034020008FEE71D488546124A1C
:10011000124B13499A60134A134B8B4216D300219A
:10012000124B134A934214D3124A13495368096875
:100130001B0C1B040B43802109020B430521536058
:100140000E4B19602323536300F01CF801CA01C34E
:10015000E3E702C3E6E7C0460000000800ED00E068
:1001600000000020640200080000002000000020C1
:100170001C00002000100240100FFF1F10E000E0E4
:10018000000C00200123254A73B5516BF0200B436E
:100190005363A023DB051968202481430800A021B4
:1001A000014304201960596881435960D968BC3003
:1001B0008143080040210143D960196A184808406A
:1001C00088214901014319628023116CDB010B4333
:1001D0001364D0228020134B9A60134ADA60134DC7
:1001E00013490A78002A10D10192019AAA4212DD1D
:1001F0001A682242F4D01A682242FCD05A68196860
:100200000142FCD0D2B25A60E9E701311E680642D1
:10021000FCD05A60E5E7019A0132E5E700100240A0
:10022000FF00FFFF003801400C2000003F420F009C
:100230004C020008F8B5C046F8BC08BC9E467047A2
:0C024000F8B5C046F8BC08BC9E467047EC
:10024C00524144494E4E4F4C4142530D0A0000005E
:04025C00E9000008AD
:04026000C1000008D1
:040000050800010BE3
:00000001FF
